{
  "_format": "hh-sol-artifact-1",
  "contractName": "Lottery",
  "sourceName": "contracts/Lottery.sol",
  "abi": [
    {
      "inputs": [
        {
          "internalType": "string",
          "name": "tokenName",
          "type": "string"
        },
        {
          "internalType": "string",
          "name": "tokenSymbol",
          "type": "string"
        },
        {
          "internalType": "uint256",
          "name": "_purchaseRatio",
          "type": "uint256"
        },
        {
          "internalType": "uint256",
          "name": "_betPrice",
          "type": "uint256"
        },
        {
          "internalType": "uint256",
          "name": "_betFee",
          "type": "uint256"
        }
      ],
      "stateMutability": "nonpayable",
      "type": "constructor"
    },
    {
      "anonymous": false,
      "inputs": [
        {
          "indexed": true,
          "internalType": "address",
          "name": "previousOwner",
          "type": "address"
        },
        {
          "indexed": true,
          "internalType": "address",
          "name": "newOwner",
          "type": "address"
        }
      ],
      "name": "OwnershipTransferred",
      "type": "event"
    },
    {
      "inputs": [],
      "name": "bet",
      "outputs": [],
      "stateMutability": "nonpayable",
      "type": "function"
    },
    {
      "inputs": [],
      "name": "betFee",
      "outputs": [
        {
          "internalType": "uint256",
          "name": "",
          "type": "uint256"
        }
      ],
      "stateMutability": "view",
      "type": "function"
    },
    {
      "inputs": [
        {
          "internalType": "uint256",
          "name": "times",
          "type": "uint256"
        }
      ],
      "name": "betMany",
      "outputs": [],
      "stateMutability": "nonpayable",
      "type": "function"
    },
    {
      "inputs": [],
      "name": "betPrice",
      "outputs": [
        {
          "internalType": "uint256",
          "name": "",
          "type": "uint256"
        }
      ],
      "stateMutability": "view",
      "type": "function"
    },
    {
      "inputs": [],
      "name": "betsClosingTime",
      "outputs": [
        {
          "internalType": "uint256",
          "name": "",
          "type": "uint256"
        }
      ],
      "stateMutability": "view",
      "type": "function"
    },
    {
      "inputs": [],
      "name": "betsOpen",
      "outputs": [
        {
          "internalType": "bool",
          "name": "",
          "type": "bool"
        }
      ],
      "stateMutability": "view",
      "type": "function"
    },
    {
      "inputs": [],
      "name": "closeLottery",
      "outputs": [],
      "stateMutability": "nonpayable",
      "type": "function"
    },
    {
      "inputs": [],
      "name": "getLotteryStatus",
      "outputs": [
        {
          "internalType": "string",
          "name": "strBetsOpen",
          "type": "string"
        }
      ],
      "stateMutability": "view",
      "type": "function"
    },
    {
      "inputs": [],
      "name": "getRandomNumber",
      "outputs": [
        {
          "internalType": "uint256",
          "name": "randomNumber",
          "type": "uint256"
        }
      ],
      "stateMutability": "view",
      "type": "function"
    },
    {
      "inputs": [
        {
          "internalType": "uint256",
          "name": "closingTime",
          "type": "uint256"
        }
      ],
      "name": "openBets",
      "outputs": [],
      "stateMutability": "nonpayable",
      "type": "function"
    },
    {
      "inputs": [],
      "name": "owner",
      "outputs": [
        {
          "internalType": "address",
          "name": "",
          "type": "address"
        }
      ],
      "stateMutability": "view",
      "type": "function"
    },
    {
      "inputs": [],
      "name": "ownerPool",
      "outputs": [
        {
          "internalType": "uint256",
          "name": "",
          "type": "uint256"
        }
      ],
      "stateMutability": "view",
      "type": "function"
    },
    {
      "inputs": [
        {
          "internalType": "uint256",
          "name": "amount",
          "type": "uint256"
        }
      ],
      "name": "ownerWithdraw",
      "outputs": [],
      "stateMutability": "nonpayable",
      "type": "function"
    },
    {
      "inputs": [],
      "name": "paymentToken",
      "outputs": [
        {
          "internalType": "contract LotteryToken",
          "name": "",
          "type": "address"
        }
      ],
      "stateMutability": "view",
      "type": "function"
    },
    {
      "inputs": [
        {
          "internalType": "address",
          "name": "",
          "type": "address"
        }
      ],
      "name": "prize",
      "outputs": [
        {
          "internalType": "uint256",
          "name": "",
          "type": "uint256"
        }
      ],
      "stateMutability": "view",
      "type": "function"
    },
    {
      "inputs": [],
      "name": "prizePool",
      "outputs": [
        {
          "internalType": "uint256",
          "name": "",
          "type": "uint256"
        }
      ],
      "stateMutability": "view",
      "type": "function"
    },
    {
      "inputs": [
        {
          "internalType": "uint256",
          "name": "amount",
          "type": "uint256"
        }
      ],
      "name": "prizeWithdraw",
      "outputs": [],
      "stateMutability": "nonpayable",
      "type": "function"
    },
    {
      "inputs": [],
      "name": "purchaseRatio",
      "outputs": [
        {
          "internalType": "uint256",
          "name": "",
          "type": "uint256"
        }
      ],
      "stateMutability": "view",
      "type": "function"
    },
    {
      "inputs": [],
      "name": "purchaseTokens",
      "outputs": [],
      "stateMutability": "payable",
      "type": "function"
    },
    {
      "inputs": [],
      "name": "renounceOwnership",
      "outputs": [],
      "stateMutability": "nonpayable",
      "type": "function"
    },
    {
      "inputs": [
        {
          "internalType": "uint256",
          "name": "amount",
          "type": "uint256"
        }
      ],
      "name": "returnTokens",
      "outputs": [],
      "stateMutability": "nonpayable",
      "type": "function"
    },
    {
      "inputs": [
        {
          "internalType": "address",
          "name": "newOwner",
          "type": "address"
        }
      ],
      "name": "transferOwnership",
      "outputs": [],
      "stateMutability": "nonpayable",
      "type": "function"
    }
  ],
  "bytecode": "0x60806040523480156200001157600080fd5b506040516200284c3803806200284c8339810160408190526200003491620001e3565b6200003f33620000b8565b84846040516200004f9062000108565b6200005c92919062000296565b604051809103906000f08015801562000079573d6000803e3d6000fd5b50600180546001600160a01b0319166001600160a01b039290921691909117905560029290925560035560045550506007805460ff19169055620002c8565b600080546001600160a01b038381166001600160a01b0319831681178455604051919092169283917f8be0079c531659141344cd1fd0a4f28419497f9722a3daafe3b4186f6b6457e09190a35050565b6117de806200106e83390190565b634e487b7160e01b600052604160045260246000fd5b60005b83811015620001495781810151838201526020016200012f565b50506000910152565b600082601f8301126200016457600080fd5b81516001600160401b038082111562000181576200018162000116565b604051601f8301601f19908116603f01168101908282118183101715620001ac57620001ac62000116565b81604052838152866020858801011115620001c657600080fd5b620001d98460208301602089016200012c565b9695505050505050565b600080600080600060a08688031215620001fc57600080fd5b85516001600160401b03808211156200021457600080fd5b6200022289838a0162000152565b965060208801519150808211156200023957600080fd5b50620002488882890162000152565b60408801516060890151608090990151979a919950979695509350505050565b60008151808452620002828160208601602086016200012c565b601f01601f19169290920160200192915050565b604081526000620002ab604083018562000268565b8281036020840152620002bf818562000268565b95945050505050565b610d9680620002d86000396000f3fe6080604052600436106101755760003560e01c8063719ce73e116100cb57806395cadc471161007f578063d1b258ff11610059578063d1b258ff1461039f578063dbdff2c1146103c9578063f2fde38b146103dc57600080fd5b806395cadc4714610353578063990a49f514610369578063cfd8a1751461038957600080fd5b8063841e6ce9116100b0578063841e6ce9146102f25780638adf9c1f146103085780638da5cb5b1461033557600080fd5b8063719ce73e146102bc578063729e91e9146102d257600080fd5b80633290ce291161012d5780633cc121e6116101075780633cc121e6146102725780636fd0981614610292578063715018a6146102a757600080fd5b80633290ce291461022a57806333f707d1146102325780633ae1786f1461025257600080fd5b80632b6524cd1161015e5780632b6524cd146101ba5780632b65e040146101dc5780633013ce29146101f257600080fd5b806311610c251461017a57806318c3496514610191575b600080fd5b34801561018657600080fd5b5061018f6103fc565b005b34801561019d57600080fd5b506101a760085481565b6040519081526020015b60405180910390f35b3480156101c657600080fd5b506101cf6105a2565b6040516101b19190610bff565b3480156101e857600080fd5b506101a760065481565b3480156101fe57600080fd5b50600154610212906001600160a01b031681565b6040516001600160a01b0390911681526020016101b1565b61018f61061a565b34801561023e57600080fd5b5061018f61024d366004610c4d565b6106b6565b34801561025e57600080fd5b5061018f61026d366004610c4d565b61072a565b34801561027e57600080fd5b5061018f61028d366004610c4d565b6107aa565b34801561029e57600080fd5b5061018f610828565b3480156102b357600080fd5b5061018f610966565b3480156102c857600080fd5b506101a760055481565b3480156102de57600080fd5b5061018f6102ed366004610c4d565b61097a565b3480156102fe57600080fd5b506101a760045481565b34801561031457600080fd5b506101a7610323366004610c66565b60096020526000908152604090205481565b34801561034157600080fd5b506000546001600160a01b0316610212565b34801561035f57600080fd5b506101a760025481565b34801561037557600080fd5b5061018f610384366004610c4d565b6109a7565b34801561039557600080fd5b506101a760035481565b3480156103ab57600080fd5b506007546103b99060ff1681565b60405190151581526020016101b1565b3480156103d557600080fd5b50446101a7565b3480156103e857600080fd5b5061018f6103f7366004610c66565b610a89565b60075460ff16801561040f575060085442105b6104605760405162461bcd60e51b815260206004820152601160248201527f4c6f747465727920697320636c6f73656400000000000000000000000000000060448201526064015b60405180910390fd5b600454600660008282546104749190610cac565b90915550506003546005805460009061048e908490610cac565b9091555050600a8054600181810183556000929092527fc65a7bb8d6351c1cf70c95a316cc6a92839c986682d98bc35f958f4883f9d2a801805473ffffffffffffffffffffffffffffffffffffffff19163390811790915590546004546003546001600160a01b0392909216926323b872dd929091309161050f9190610cac565b6040517fffffffff0000000000000000000000000000000000000000000000000000000060e086901b1681526001600160a01b03938416600482015292909116602483015260448201526064016020604051808303816000875af115801561057b573d6000803e3d6000fd5b505050506040513d601f19601f8201168201806040525081019061059f9190610cc5565b50565b60408051808201909152600681527f436c6f7365640000000000000000000000000000000000000000000000000000602082015260075460ff1615610617575060408051808201909152600481527f4f70656e0000000000000000000000000000000000000000000000000000000060208201525b90565b6001546002546001600160a01b03909116906340c10f1990339061063e9034610ce7565b6040517fffffffff0000000000000000000000000000000000000000000000000000000060e085901b1681526001600160a01b0390921660048301526024820152604401600060405180830381600087803b15801561069c57600080fd5b505af11580156106b0573d6000803e3d6000fd5b50505050565b6106be610b16565b6006548111156107105760405162461bcd60e51b815260206004820152601960248201527f4e6f7420656e6f756768206665657320636f6c6c6563746564000000000000006044820152606401610457565b80600660008282546107229190610cfe565b909155505050565b6001546040517f79cc6790000000000000000000000000000000000000000000000000000000008152336004820152602481018390526001600160a01b03909116906379cc679090604401600060405180830381600087803b15801561078f57600080fd5b505af11580156107a3573d6000803e3d6000fd5b5050505050565b336000908152600960205260409020548111156108095760405162461bcd60e51b815260206004820152601060248201527f4e6f7420656e6f756768207072697a65000000000000000000000000000000006044820152606401610457565b3360009081526009602052604081208054839290610722908490610cfe565b610830610b16565b6008544210156108825760405162461bcd60e51b815260206004820152601160248201527f546f6f20736f6f6e20746f20636c6f73650000000000000000000000000000006044820152606401610457565b60075460ff166108d45760405162461bcd60e51b815260206004820152600e60248201527f416c726561647920636c6f7365640000000000000000000000000000000000006044820152606401610457565b600a541561095a57600a546000906108ec9044610d11565b90506000600a828154811061090357610903610d33565b60009182526020808320909101546005546001600160a01b0390911680845260099092526040832080549294509092909161093f908490610cac565b90915550506000600581905561095790600a90610bcd565b50505b6007805460ff19169055565b61096e610b16565b6109786000610b70565b565b6000811161098757600080fd5b801561059f576109956103fc565b8061099f81610d49565b915050610987565b6109af610b16565b60075460ff1615610a025760405162461bcd60e51b815260206004820152600f60248201527f4c6f7474657279206973206f70656e00000000000000000000000000000000006044820152606401610457565b428111610a775760405162461bcd60e51b815260206004820152602260248201527f436c6f73696e672074696d65206d75737420626520696e20746865206675747560448201527f72650000000000000000000000000000000000000000000000000000000000006064820152608401610457565b6008556007805460ff19166001179055565b610a91610b16565b6001600160a01b038116610b0d5760405162461bcd60e51b815260206004820152602660248201527f4f776e61626c653a206e6577206f776e657220697320746865207a65726f206160448201527f64647265737300000000000000000000000000000000000000000000000000006064820152608401610457565b61059f81610b70565b6000546001600160a01b031633146109785760405162461bcd60e51b815260206004820181905260248201527f4f776e61626c653a2063616c6c6572206973206e6f7420746865206f776e65726044820152606401610457565b600080546001600160a01b0383811673ffffffffffffffffffffffffffffffffffffffff19831681178455604051919092169283917f8be0079c531659141344cd1fd0a4f28419497f9722a3daafe3b4186f6b6457e09190a35050565b508054600082559060005260206000209081019061059f91905b80821115610bfb5760008155600101610be7565b5090565b600060208083528351808285015260005b81811015610c2c57858101830151858201604001528201610c10565b506000604082860101526040601f19601f8301168501019250505092915050565b600060208284031215610c5f57600080fd5b5035919050565b600060208284031215610c7857600080fd5b81356001600160a01b0381168114610c8f57600080fd5b9392505050565b634e487b7160e01b600052601160045260246000fd5b80820180821115610cbf57610cbf610c96565b92915050565b600060208284031215610cd757600080fd5b81518015158114610c8f57600080fd5b8082028115828204841417610cbf57610cbf610c96565b81810381811115610cbf57610cbf610c96565b600082610d2e57634e487b7160e01b600052601260045260246000fd5b500690565b634e487b7160e01b600052603260045260246000fd5b600081610d5857610d58610c96565b50600019019056fea2646970667358221220dfc639d6851f1aff289f32673e54cef5221a6106af37532ff34ba16cb746cc6d64736f6c6343000814003360806040523480156200001157600080fd5b50604051620017de380380620017de833981016040819052620000349162000203565b81816003620000448382620002fc565b506004620000538282620002fc565b50620000659150600090503362000099565b620000917f9f2df0fed2c77648de5860a4cc508cd0818c85b8b8a1ab4ceeef8d981c8956a63362000099565b5050620003c8565b60008281526005602090815260408083206001600160a01b038516845290915290205460ff166200013a5760008281526005602090815260408083206001600160a01b03851684529091529020805460ff19166001179055620000f93390565b6001600160a01b0316816001600160a01b0316837f2f8788117e7eff1d82e926ec794901d17c78024a50270940304540a733656f0d60405160405180910390a45b5050565b634e487b7160e01b600052604160045260246000fd5b600082601f8301126200016657600080fd5b81516001600160401b03808211156200018357620001836200013e565b604051601f8301601f19908116603f01168101908282118183101715620001ae57620001ae6200013e565b81604052838152602092508683858801011115620001cb57600080fd5b600091505b83821015620001ef5785820183015181830184015290820190620001d0565b600093810190920192909252949350505050565b600080604083850312156200021757600080fd5b82516001600160401b03808211156200022f57600080fd5b6200023d8683870162000154565b935060208501519150808211156200025457600080fd5b50620002638582860162000154565b9150509250929050565b600181811c908216806200028257607f821691505b602082108103620002a357634e487b7160e01b600052602260045260246000fd5b50919050565b601f821115620002f757600081815260208120601f850160051c81016020861015620002d25750805b601f850160051c820191505b81811015620002f357828155600101620002de565b5050505b505050565b81516001600160401b038111156200031857620003186200013e565b62000330816200032984546200026d565b84620002a9565b602080601f8311600181146200036857600084156200034f5750858301515b600019600386901b1c1916600185901b178555620002f3565b600085815260208120601f198616915b82811015620003995788860151825594840194600190910190840162000378565b5085821015620003b85787850151600019600388901b60f8161c191681555b5050505050600190811b01905550565b61140680620003d86000396000f3fe608060405234801561001057600080fd5b50600436106101825760003560e01c806342966c68116100d8578063a217fddf1161008c578063d539139311610066578063d53913931461033a578063d547741f14610361578063dd62ed3e1461037457600080fd5b8063a217fddf1461030c578063a457c2d714610314578063a9059cbb1461032757600080fd5b806379cc6790116100bd57806379cc6790146102b857806391d14854146102cb57806395d89b411461030457600080fd5b806342966c681461027c57806370a082311461028f57600080fd5b8063248a9ca31161013a57806336568abe1161011457806336568abe14610243578063395093511461025657806340c10f191461026957600080fd5b8063248a9ca3146101fc5780632f2ff15d1461021f578063313ce5671461023457600080fd5b8063095ea7b31161016b578063095ea7b3146101c457806318160ddd146101d757806323b872dd146101e957600080fd5b806301ffc9a71461018757806306fdde03146101af575b600080fd5b61019a6101953660046110ed565b6103ad565b60405190151581526020015b60405180910390f35b6101b7610446565b6040516101a69190611153565b61019a6101d23660046111a2565b6104d8565b6002545b6040519081526020016101a6565b61019a6101f73660046111cc565b6104f0565b6101db61020a366004611208565b60009081526005602052604090206001015490565b61023261022d366004611221565b610514565b005b604051601281526020016101a6565b610232610251366004611221565b61053e565b61019a6102643660046111a2565b6105cf565b6102326102773660046111a2565b61060e565b61023261028a366004611208565b610642565b6101db61029d36600461124d565b6001600160a01b031660009081526020819052604090205490565b6102326102c63660046111a2565b61064f565b61019a6102d9366004611221565b60009182526005602090815260408084206001600160a01b0393909316845291905290205460ff1690565b6101b7610664565b6101db600081565b61019a6103223660046111a2565b610673565b61019a6103353660046111a2565b61071d565b6101db7f9f2df0fed2c77648de5860a4cc508cd0818c85b8b8a1ab4ceeef8d981c8956a681565b61023261036f366004611221565b61072b565b6101db610382366004611268565b6001600160a01b03918216600090815260016020908152604080832093909416825291909152205490565b60007fffffffff0000000000000000000000000000000000000000000000000000000082167f7965db0b00000000000000000000000000000000000000000000000000000000148061044057507f01ffc9a7000000000000000000000000000000000000000000000000000000007fffffffff000000000000000000000000000000000000000000000000000000008316145b92915050565b60606003805461045590611292565b80601f016020809104026020016040519081016040528092919081815260200182805461048190611292565b80156104ce5780601f106104a3576101008083540402835291602001916104ce565b820191906000526020600020905b8154815290600101906020018083116104b157829003601f168201915b5050505050905090565b6000336104e6818585610750565b5060019392505050565b6000336104fe8582856108a8565b61050985858561093a565b506001949350505050565b60008281526005602052604090206001015461052f81610b27565b6105398383610b31565b505050565b6001600160a01b03811633146105c15760405162461bcd60e51b815260206004820152602f60248201527f416363657373436f6e74726f6c3a2063616e206f6e6c792072656e6f756e636560448201527f20726f6c657320666f722073656c66000000000000000000000000000000000060648201526084015b60405180910390fd5b6105cb8282610bd3565b5050565b3360008181526001602090815260408083206001600160a01b03871684529091528120549091906104e690829086906106099087906112e2565b610750565b7f9f2df0fed2c77648de5860a4cc508cd0818c85b8b8a1ab4ceeef8d981c8956a661063881610b27565b6105398383610c56565b61064c3382610d15565b50565b61065a8233836108a8565b6105cb8282610d15565b60606004805461045590611292565b3360008181526001602090815260408083206001600160a01b0387168452909152812054909190838110156107105760405162461bcd60e51b815260206004820152602560248201527f45524332303a2064656372656173656420616c6c6f77616e63652062656c6f7760448201527f207a65726f00000000000000000000000000000000000000000000000000000060648201526084016105b8565b6105098286868403610750565b6000336104e681858561093a565b60008281526005602052604090206001015461074681610b27565b6105398383610bd3565b6001600160a01b0383166107cb5760405162461bcd60e51b8152602060048201526024808201527f45524332303a20617070726f76652066726f6d20746865207a65726f2061646460448201527f726573730000000000000000000000000000000000000000000000000000000060648201526084016105b8565b6001600160a01b0382166108475760405162461bcd60e51b815260206004820152602260248201527f45524332303a20617070726f766520746f20746865207a65726f20616464726560448201527f737300000000000000000000000000000000000000000000000000000000000060648201526084016105b8565b6001600160a01b0383811660008181526001602090815260408083209487168084529482529182902085905590518481527f8c5be1e5ebec7d5bd14f71427d1e84f3dd0314c0f7b2291e5b200ac8c7c3b925910160405180910390a3505050565b6001600160a01b03838116600090815260016020908152604080832093861683529290522054600019811461093457818110156109275760405162461bcd60e51b815260206004820152601d60248201527f45524332303a20696e73756666696369656e7420616c6c6f77616e636500000060448201526064016105b8565b6109348484848403610750565b50505050565b6001600160a01b0383166109b65760405162461bcd60e51b815260206004820152602560248201527f45524332303a207472616e736665722066726f6d20746865207a65726f20616460448201527f647265737300000000000000000000000000000000000000000000000000000060648201526084016105b8565b6001600160a01b038216610a325760405162461bcd60e51b815260206004820152602360248201527f45524332303a207472616e7366657220746f20746865207a65726f206164647260448201527f657373000000000000000000000000000000000000000000000000000000000060648201526084016105b8565b6001600160a01b03831660009081526020819052604090205481811015610ac15760405162461bcd60e51b815260206004820152602660248201527f45524332303a207472616e7366657220616d6f756e742065786365656473206260448201527f616c616e6365000000000000000000000000000000000000000000000000000060648201526084016105b8565b6001600160a01b03848116600081815260208181526040808320878703905593871680835291849020805487019055925185815290927fddf252ad1be2c89b69c2b068fc378daa952ba7f163c4a11628f55a4df523b3ef910160405180910390a3610934565b61064c8133610e7e565b60008281526005602090815260408083206001600160a01b038516845290915290205460ff166105cb5760008281526005602090815260408083206001600160a01b03851684529091529020805460ff19166001179055610b8f3390565b6001600160a01b0316816001600160a01b0316837f2f8788117e7eff1d82e926ec794901d17c78024a50270940304540a733656f0d60405160405180910390a45050565b60008281526005602090815260408083206001600160a01b038516845290915290205460ff16156105cb5760008281526005602090815260408083206001600160a01b0385168085529252808320805460ff1916905551339285917ff6391f5c32d9c69d2a47ea670b442974b53935d1edc7fd64eb21e047a839171b9190a45050565b6001600160a01b038216610cac5760405162461bcd60e51b815260206004820152601f60248201527f45524332303a206d696e7420746f20746865207a65726f20616464726573730060448201526064016105b8565b8060026000828254610cbe91906112e2565b90915550506001600160a01b038216600081815260208181526040808320805486019055518481527fddf252ad1be2c89b69c2b068fc378daa952ba7f163c4a11628f55a4df523b3ef910160405180910390a35050565b6001600160a01b038216610d915760405162461bcd60e51b815260206004820152602160248201527f45524332303a206275726e2066726f6d20746865207a65726f2061646472657360448201527f730000000000000000000000000000000000000000000000000000000000000060648201526084016105b8565b6001600160a01b03821660009081526020819052604090205481811015610e205760405162461bcd60e51b815260206004820152602260248201527f45524332303a206275726e20616d6f756e7420657863656564732062616c616e60448201527f636500000000000000000000000000000000000000000000000000000000000060648201526084016105b8565b6001600160a01b0383166000818152602081815260408083208686039055600280548790039055518581529192917fddf252ad1be2c89b69c2b068fc378daa952ba7f163c4a11628f55a4df523b3ef910160405180910390a3505050565b60008281526005602090815260408083206001600160a01b038516845290915290205460ff166105cb57610eb181610ef3565b610ebc836020610f05565b604051602001610ecd9291906112f5565b60408051601f198184030181529082905262461bcd60e51b82526105b891600401611153565b60606104406001600160a01b03831660145b60606000610f14836002611376565b610f1f9060026112e2565b67ffffffffffffffff811115610f3757610f3761138d565b6040519080825280601f01601f191660200182016040528015610f61576020820181803683370190505b5090507f300000000000000000000000000000000000000000000000000000000000000081600081518110610f9857610f986113a3565b60200101906001600160f81b031916908160001a9053507f780000000000000000000000000000000000000000000000000000000000000081600181518110610fe357610fe36113a3565b60200101906001600160f81b031916908160001a9053506000611007846002611376565b6110129060016112e2565b90505b6001811115611097577f303132333435363738396162636465660000000000000000000000000000000085600f1660108110611053576110536113a3565b1a60f81b828281518110611069576110696113a3565b60200101906001600160f81b031916908160001a90535060049490941c93611090816113b9565b9050611015565b5083156110e65760405162461bcd60e51b815260206004820181905260248201527f537472696e67733a20686578206c656e67746820696e73756666696369656e7460448201526064016105b8565b9392505050565b6000602082840312156110ff57600080fd5b81357fffffffff00000000000000000000000000000000000000000000000000000000811681146110e657600080fd5b60005b8381101561114a578181015183820152602001611132565b50506000910152565b602081526000825180602084015261117281604085016020870161112f565b601f01601f19169190910160400192915050565b80356001600160a01b038116811461119d57600080fd5b919050565b600080604083850312156111b557600080fd5b6111be83611186565b946020939093013593505050565b6000806000606084860312156111e157600080fd5b6111ea84611186565b92506111f860208501611186565b9150604084013590509250925092565b60006020828403121561121a57600080fd5b5035919050565b6000806040838503121561123457600080fd5b8235915061124460208401611186565b90509250929050565b60006020828403121561125f57600080fd5b6110e682611186565b6000806040838503121561127b57600080fd5b61128483611186565b915061124460208401611186565b600181811c908216806112a657607f821691505b6020821081036112c657634e487b7160e01b600052602260045260246000fd5b50919050565b634e487b7160e01b600052601160045260246000fd5b80820180821115610440576104406112cc565b7f416363657373436f6e74726f6c3a206163636f756e742000000000000000000081526000835161132d81601785016020880161112f565b7f206973206d697373696e6720726f6c6520000000000000000000000000000000601791840191820152835161136a81602884016020880161112f565b01602801949350505050565b8082028115828204841417610440576104406112cc565b634e487b7160e01b600052604160045260246000fd5b634e487b7160e01b600052603260045260246000fd5b6000816113c8576113c86112cc565b50600019019056fea2646970667358221220ce34e7957888a6b7635e1cca1b908934d765842b415da848715b436cecaf69b164736f6c63430008140033",
  "linkReferences": {},
  "deployedLinkReferences": {}
}