{
  "_format": "hh-sol-artifact-1",
  "contractName": "TokenizedBallot",
  "sourceName": "contracts/TokenizedBallot.sol",
  "abi": [
    {
      "inputs": [
        {
          "internalType": "bytes32[]",
          "name": "_proposalNames",
          "type": "bytes32[]"
        },
        {
          "internalType": "address",
          "name": "_targetContract",
          "type": "address"
        },
        {
          "internalType": "uint256",
          "name": "_targetBlockNumber",
          "type": "uint256"
        }
      ],
      "stateMutability": "nonpayable",
      "type": "constructor"
    },
    {
      "inputs": [],
      "name": "getProposals",
      "outputs": [
        {
          "internalType": "bytes32[]",
          "name": "",
          "type": "bytes32[]"
        }
      ],
      "stateMutability": "view",
      "type": "function"
    },
    {
      "inputs": [
        {
          "internalType": "uint256",
          "name": "",
          "type": "uint256"
        }
      ],
      "name": "proposals",
      "outputs": [
        {
          "internalType": "bytes32",
          "name": "name",
          "type": "bytes32"
        },
        {
          "internalType": "uint256",
          "name": "voteCount",
          "type": "uint256"
        }
      ],
      "stateMutability": "view",
      "type": "function"
    },
    {
      "inputs": [],
      "name": "targetBlockNumber",
      "outputs": [
        {
          "internalType": "uint256",
          "name": "",
          "type": "uint256"
        }
      ],
      "stateMutability": "view",
      "type": "function"
    },
    {
      "inputs": [],
      "name": "targetContract",
      "outputs": [
        {
          "internalType": "contract IMyToken",
          "name": "",
          "type": "address"
        }
      ],
      "stateMutability": "view",
      "type": "function"
    },
    {
      "inputs": [
        {
          "internalType": "uint256",
          "name": "proposal",
          "type": "uint256"
        },
        {
          "internalType": "uint256",
          "name": "amount",
          "type": "uint256"
        }
      ],
      "name": "vote",
      "outputs": [],
      "stateMutability": "nonpayable",
      "type": "function"
    },
    {
      "inputs": [
        {
          "internalType": "address",
          "name": "",
          "type": "address"
        }
      ],
      "name": "voted",
      "outputs": [
        {
          "internalType": "uint256",
          "name": "",
          "type": "uint256"
        }
      ],
      "stateMutability": "view",
      "type": "function"
    },
    {
      "inputs": [
        {
          "internalType": "address",
          "name": "account",
          "type": "address"
        }
      ],
      "name": "votingPower",
      "outputs": [
        {
          "internalType": "uint256",
          "name": "",
          "type": "uint256"
        }
      ],
      "stateMutability": "view",
      "type": "function"
    },
    {
      "inputs": [],
      "name": "winnerName",
      "outputs": [
        {
          "internalType": "bytes32",
          "name": "winnerName_",
          "type": "bytes32"
        }
      ],
      "stateMutability": "view",
      "type": "function"
    },
    {
      "inputs": [],
      "name": "winningProposal",
      "outputs": [
        {
          "internalType": "uint256",
          "name": "winningProposal_",
          "type": "uint256"
        }
      ],
      "stateMutability": "view",
      "type": "function"
    },
    {
      "inputs": [],
      "name": "winningProposalVoteCount",
      "outputs": [
        {
          "internalType": "uint256",
          "name": "winningVoteCount_",
          "type": "uint256"
        }
      ],
      "stateMutability": "view",
      "type": "function"
    }
  ],
  "bytecode": "0x60806040523480156200001157600080fd5b50604051620011ca380380620011ca8339818101604052810190620000379190620003c9565b81600160006101000a81548173ffffffffffffffffffffffffffffffffffffffff021916908373ffffffffffffffffffffffffffffffffffffffff160217905550438110620000bd576040517f08c379a0000000000000000000000000000000000000000000000000000000008152600401620000b490620004cb565b60405180910390fd5b8060038190555060005b83518110156200015b5760026040518060400160405280868481518110620000f457620000f3620004ed565b5b602002602001015181526020016000815250908060018154018082558091505060019003906000526020600020906002020160009091909190915060008201518160000155602082015181600101555050808062000152906200054b565b915050620000c7565b5050505062000598565b6000604051905090565b600080fd5b600080fd5b600080fd5b6000601f19601f8301169050919050565b7f4e487b7100000000000000000000000000000000000000000000000000000000600052604160045260246000fd5b620001c9826200017e565b810181811067ffffffffffffffff82111715620001eb57620001ea6200018f565b5b80604052505050565b60006200020062000165565b90506200020e8282620001be565b919050565b600067ffffffffffffffff8211156200023157620002306200018f565b5b602082029050602081019050919050565b600080fd5b6000819050919050565b6200025c8162000247565b81146200026857600080fd5b50565b6000815190506200027c8162000251565b92915050565b600062000299620002938462000213565b620001f4565b90508083825260208201905060208402830185811115620002bf57620002be62000242565b5b835b81811015620002ec5780620002d788826200026b565b845260208401935050602081019050620002c1565b5050509392505050565b600082601f8301126200030e576200030d62000179565b5b81516200032084826020860162000282565b91505092915050565b600073ffffffffffffffffffffffffffffffffffffffff82169050919050565b6000620003568262000329565b9050919050565b620003688162000349565b81146200037457600080fd5b50565b60008151905062000388816200035d565b92915050565b6000819050919050565b620003a3816200038e565b8114620003af57600080fd5b50565b600081519050620003c38162000398565b92915050565b600080600060608486031215620003e557620003e46200016f565b5b600084015167ffffffffffffffff81111562000406576200040562000174565b5b6200041486828701620002f6565b9350506020620004278682870162000377565b92505060406200043a86828701620003b2565b9150509250925092565b600082825260208201905092915050565b7f546f6b656e697a656442616c6c6f743a20746172676574426c6f636b4e756d6260008201527f6572206d75737420626520696e20746865207061737400000000000000000000602082015250565b6000620004b360368362000444565b9150620004c08262000455565b604082019050919050565b60006020820190508181036000830152620004e681620004a4565b9050919050565b7f4e487b7100000000000000000000000000000000000000000000000000000000600052603260045260246000fd5b7f4e487b7100000000000000000000000000000000000000000000000000000000600052601160045260246000fd5b600062000558826200038e565b91507fffffffffffffffffffffffffffffffffffffffffffffffffffffffffffffffff82036200058d576200058c6200051c565b5b600182019050919050565b610c2280620005a86000396000f3fe608060405234801561001057600080fd5b506004361061009e5760003560e01c8063aec2ccae11610066578063aec2ccae1461014c578063b384abef1461017c578063bd90df7014610198578063c07473f6146101b6578063e2ba53f0146101e65761009e565b8063013cf08b146100a357806301633a8c146100d45780632a8cd29e146100f2578063609ff1bd1461011057806362564c481461012e575b600080fd5b6100bd60048036038101906100b891906106b9565b610204565b6040516100cb92919061070e565b60405180910390f35b6100dc610238565b6040516100e99190610737565b60405180910390f35b6100fa6102b6565b6040516101079190610737565b60405180910390f35b6101186102bc565b6040516101259190610737565b60405180910390f35b610136610344565b6040516101439190610810565b60405180910390f35b61016660048036038101906101619190610890565b61040f565b6040516101739190610737565b60405180910390f35b610196600480360381019061019191906108bd565b610427565b005b6101a061050a565b6040516101ad919061095c565b60405180910390f35b6101d060048036038101906101cb9190610890565b610530565b6040516101dd9190610737565b60405180910390f35b6101ee610548565b6040516101fb9190610977565b60405180910390f35b6002818154811061021457600080fd5b90600052602060002090600202016000915090508060000154908060010154905082565b6000805b6002805490508110156102b257816002828154811061025e5761025d610992565b5b906000526020600020906002020160010154111561029f576002818154811061028a57610289610992565b5b90600052602060002090600202016001015491505b80806102aa906109f0565b91505061023c565b5090565b60035481565b6000806000905060005b60028054905081101561033f5781600282815481106102e8576102e7610992565b5b906000526020600020906002020160010154111561032c576002818154811061031457610313610992565b5b90600052602060002090600202016001015491508092505b8080610337906109f0565b9150506102c6565b505090565b60606000600280549050905060008167ffffffffffffffff81111561036c5761036b610a38565b5b60405190808252806020026020018201604052801561039a5781602001602082028036833780820191505090505b50905060005b82811015610406576000600282815481106103be576103bd610992565b5b9060005260206000209060020201905080600001548383815181106103e6576103e5610992565b5b6020026020010181815250505080806103fe906109f0565b9150506103a0565b50809250505090565b60006020528060005260406000206000915090505481565b6000806104333361057c565b915091508282101561047a576040517f08c379a000000000000000000000000000000000000000000000000000000000815260040161047190610aea565b60405180910390fd5b826002858154811061048f5761048e610992565b5b906000526020600020906002020160010160008282546104af9190610b0a565b9250508190555082816104c29190610b0a565b6000803373ffffffffffffffffffffffffffffffffffffffff1673ffffffffffffffffffffffffffffffffffffffff1681526020019081526020016000208190555050505050565b600160009054906101000a900473ffffffffffffffffffffffffffffffffffffffff1681565b60008061053c8361057c565b50905080915050919050565b600060026105546102bc565b8154811061056557610564610992565b5b906000526020600020906002020160000154905090565b60008060008060008573ffffffffffffffffffffffffffffffffffffffff1673ffffffffffffffffffffffffffffffffffffffff168152602001908152602001600020549050600081600160009054906101000a900473ffffffffffffffffffffffffffffffffffffffff1673ffffffffffffffffffffffffffffffffffffffff16633a46b1a8876003546040518363ffffffff1660e01b8152600401610624929190610b4d565b602060405180830381865afa158015610641573d6000803e3d6000fd5b505050506040513d601f19601f820116820180604052508101906106659190610b8b565b61066f9190610bb8565b90508082935093505050915091565b600080fd5b6000819050919050565b61069681610683565b81146106a157600080fd5b50565b6000813590506106b38161068d565b92915050565b6000602082840312156106cf576106ce61067e565b5b60006106dd848285016106a4565b91505092915050565b6000819050919050565b6106f9816106e6565b82525050565b61070881610683565b82525050565b600060408201905061072360008301856106f0565b61073060208301846106ff565b9392505050565b600060208201905061074c60008301846106ff565b92915050565b600081519050919050565b600082825260208201905092915050565b6000819050602082019050919050565b610787816106e6565b82525050565b6000610799838361077e565b60208301905092915050565b6000602082019050919050565b60006107bd82610752565b6107c7818561075d565b93506107d28361076e565b8060005b838110156108035781516107ea888261078d565b97506107f5836107a5565b9250506001810190506107d6565b5085935050505092915050565b6000602082019050818103600083015261082a81846107b2565b905092915050565b600073ffffffffffffffffffffffffffffffffffffffff82169050919050565b600061085d82610832565b9050919050565b61086d81610852565b811461087857600080fd5b50565b60008135905061088a81610864565b92915050565b6000602082840312156108a6576108a561067e565b5b60006108b48482850161087b565b91505092915050565b600080604083850312156108d4576108d361067e565b5b60006108e2858286016106a4565b92505060206108f3858286016106a4565b9150509250929050565b6000819050919050565b600061092261091d61091884610832565b6108fd565b610832565b9050919050565b600061093482610907565b9050919050565b600061094682610929565b9050919050565b6109568161093b565b82525050565b6000602082019050610971600083018461094d565b92915050565b600060208201905061098c60008301846106f0565b92915050565b7f4e487b7100000000000000000000000000000000000000000000000000000000600052603260045260246000fd5b7f4e487b7100000000000000000000000000000000000000000000000000000000600052601160045260246000fd5b60006109fb82610683565b91507fffffffffffffffffffffffffffffffffffffffffffffffffffffffffffffffff8203610a2d57610a2c6109c1565b5b600182019050919050565b7f4e487b7100000000000000000000000000000000000000000000000000000000600052604160045260246000fd5b600082825260208201905092915050565b7f546f6b656e697a656442616c6c6f743a20747279696e6720746f20766f74652060008201527f6d6f7265207468616e20616c6c6f776564000000000000000000000000000000602082015250565b6000610ad4603183610a67565b9150610adf82610a78565b604082019050919050565b60006020820190508181036000830152610b0381610ac7565b9050919050565b6000610b1582610683565b9150610b2083610683565b9250828201905080821115610b3857610b376109c1565b5b92915050565b610b4781610852565b82525050565b6000604082019050610b626000830185610b3e565b610b6f60208301846106ff565b9392505050565b600081519050610b858161068d565b92915050565b600060208284031215610ba157610ba061067e565b5b6000610baf84828501610b76565b91505092915050565b6000610bc382610683565b9150610bce83610683565b9250828203905081811115610be657610be56109c1565b5b9291505056fea2646970667358221220492d1110718bec14a3f8be4985c717b4077457a1bcdf11c01c199561d49b03c364736f6c63430008140033",
  "linkReferences": {},
  "deployedLinkReferences": {}
}